:021BBC0015F81A
:021BBE001A7A91
:021BC0001B24E4
:0300000002168A5B
:0C168A00787FE4F6D8FD7581210216D1AE
:03000B00021310CD
:10130B00C2AF80FE3212130F85D00B75D008AAE046
:10131B00C28CE58A2407F58AE58C34CAF58CD28C0D
:10132B00EC241AF8E6BC020274FFC39581B41400D6
:10133B0040CE7903781316E608700BC2AFE630E1A6
:10134B00034418F6D2AF08D9EDEA8BD0300901224D
:10135B00D50DFCC0E0C0D0C0F0C083C082C000C0BF
:10136B0001C002C003C004C005C006C007E50C23C2
:10137B002414F87440C2AF46F6D2AFD209E50CFF85
:10138B00232414F80F0808BF03047F007814E630F9
:10139B00E4F200E50CC39F5020050C7419250CF8E2
:1013AB00E6FDA68108E6AE0CBE020274FFCDF8E89E
:1013BB006D60E008E6C0E080F6E50CD39F4027E5C2
:1013CB000C241AF8E6AE0CBE020274FFFD18E6CD33
:1013DB00F8E5816D6006D0E0F61880F5E50C241970
:1013EB00C8F6150C80D3750D05E50C232414F87F76
:1013FB0004C2AFE610E61E30E00310E20C7F0030B3
:05140B00E10730E304DD
:101410007F0854F4547CC6D2AF54804207C20922DC
:10142000F6D2AFD007D006D005D004D003D002D07A
:1014300001D000D082D083D0F0D0D0D0E0C2092239
:101440007819A68174026006FF0876FFDFFB7F0330
:10145000E47813F608F608DFFA78147630901BBCAF
:10146000740193C0E0E493C0E0750D0543890175F4
:0D1470008A00758CCAD28CD2AFD2A922029C
:101B520074656D703A2025640D0A003A25366400DA
:101A04004200340000420036000059003800000053
:101A140000000000000000000000000000000000C2
:061A2400000000000000BC
:101B06007BFF900003120E59900051E0FFA3E09076
:0E1B16000006CFF0A3EFF07B017A00793822B1
:1015F800D2B7D2E8121B3F1217161219A8E4FB7DC6
:10160800037F141218C97B017D037F241218C97F38
:101618000112147D7F0212147D900035E064017080
:1016280005C2B7F0800B900035E064027003D2B7B2
:10163800F0900037E064017005B2E8F08027900070
:1016480037E06402701F7A1B7952121B06120EEDE6
:10165800121B1D12000EAC06AD07121B1D12190934
:10166800E4900037F07A1B795D121B06120EED121A
:101678001B1D9000057401F07D037F3412179E0234
:02168800162129
:101A7A007B017A007934A2A1E433FD1219407B017B
:101A8A007A007936A2A0E433FD1219407D0A7F025A
:051A9A0012150680DBBF
:101B2400121B337DE87F02121506121B3380F41258
:0B1B34001889900051EEF0A3EFF022A2
:021A2A00C10AEF
:101B3F00759850758920758BFD758DFDD28ED2AC41
:031B4F00D2AF22F0
:091BA300200AFDEFD20AF5992297
:0E190900900000120E59900003ECF0A3EDF0D8
:10191700E4FDFCD3900004E09D900003E09C401898
:10192700900000120E398D828C83120DA6FF121BB8
:08193700A30DBD00010C80DBD3
:01193F002285
:03002300021B803D
:0D1B8000309802C298309904C299C20A320E
:100026000000000000000000002F00000000070094
:10003600070000147F147F1400242A7F2A1200620E
:1000460064081323003649552250000005030000BA
:1000560000001C224100000041221C000014083E42
:1000660008140008083E0808000000A06000000808
:10007600080808080000606000000020100804025C
:10008600003E5149453E0000427F4000004261511A
:100096004946002141454B31001814127F100027B4
:1000A60045454539003C4A49493000017109050377
:1000B60000364949493600064949291E00003636A8
:1000C600000000005636000000081422410000140B
:1000D60014141414000041221408000201510906E8
:1000E60000324959513E007C1211127C007F494969
:1000F6004936003E41414122007F4141221C007F9A
:1001060049494941007F09090901003E4149497AA7
:10011600007F0808087F0000417F41000020404121
:100126003F01007F08142241007F40404040007F8D
:10013600020C027F007F0408107F003E4141413ED1
:10014600007F09090906003E4151215E007F091919
:1001560029460046494949310001017F0101003F16
:100166004040403F001F2040201F003F4038403F96
:1001760000631408146300070870080700615149FA
:10018600454300007F41410000552A552A5500008D
:1001960041417F000004020102040040404040400B
:1001A600000001020400002054545478007F4844A3
:1001B600443800384444442000384444487F0038DA
:1001C6005454541800087E0901020018A4A4A47C03
:1001D600007F080404780000447D400000408084CD
:1001E6007D00007F102844000000417F4000007C15
:1001F60004180478007C0804047800384444443821
:1002060000FC242424180018242418FC007C08046C
:10021600040800485454542000043F444020003C45
:100226004040207C001C2040201C003C4030403CCC
:10023600004428102844001CA0A0A07C004464545C
:100246004C441414141414140000000000000000A0
:100256000000000000000000000000F800000000A0
:10026600000000333000000000100C06100C0600E1
:10027600000000000000000040C07840C078400048
:10028600043F04043F040400007088FC08300000AA
:10029600001820FF211E0000F008F000E018000002
:1002A60000211C031E211E0000F0088870000000BB
:1002B6001E2123241927211010160E00000000000D
:1002C6000000000000000000000000E0180402002A
:1002D600000000071820400000020418E00000009B
:1002E6000040201807000000404080F08040400099
:1002F6000202010F01020200000000F000000000EF
:100306000101011F010101000000000000000000C2
:1003160080B0700000000000000000000000000037
:1003260000010101010101010000000000000000C0
:10033600003030000000000000000000806018045B
:10034600006018060100000000E010080810E00038
:10035600000F102020100F00001010F80000000001
:100366000020203F20200000007008080888700048
:1003760000302824222130000030088888483000C8
:100386000018202020110E000000C02010F80000E8
:1003960000070424243F240000F808888808080081
:1003A6000019212020110E0000E010888818000096
:1003B600000F112020110E0000380808C838080068
:1003C6000000003F000000000070880808887000E8
:1003D600001C222121221C0000E010080810E00069
:1003E6000000312222110F00000000C0C0000000F2
:1003F6000000003030000000000000800000000017
:10040600000080600000000000008040201008000E
:1004160000010204081020004040404040404000D7
:1004260004040404040404000008102040800000B2
:100436000020100804020100007048080808F000B7
:100446000000003036010000C030C828E810E00087
:100456000718272423140B000000C038E000000012
:10046600203C23020227382008F88888887000007C
:10047600203F202020110E00C03008080808380050
:10048600071820202010080008F808080810E000C7
:10049600203F202020100F0008F88888E808100068
:1004A600203F20202320180008F88888E80810003C
:1004B600203F200003000000C03008080838000074
:1004C60007182020221E020008F808000008F80875
:1004D600203F210101213F20000808F808080000FC
:1004E6000020203F2020000000000808F80808002F
:1004F600C08080807F00000008F888C028180800A7
:10050600203F20012638200008F8080000000000DF
:10051600203F20202020300008F8F800F8F80800D6
:10052600203F003F003F200008F830C00008F808D0
:10053600203F200007183F00E01008080810E000E0
:100546000F10202020100F0008F808080808F000F7
:10055600203F210101010000E01008080810E0001A
:100566000F18242438504F0008F8888888887000AF
:10057600203F2000030C302000708808080838004F
:100586000038202121221C00180808F80808180045
:100596000000203F2000000008F808000008F808C6
:1005A600001F202020201F000878880000C8380877
:1005B600000007380E010000F80800F80008F800EF
:1005C600033C0700073C0300081868808068180889
:1005D60020302C03032C30200838C800C838080007
:1005E6000000203F2000000010080808C838080056
:1005F6002038262120201800000000FE02020200FA
:100606000000007F40404000000C30C000000000A9
:10061600000000010638C00000020202FE000000D1
:10062600004040407F000000000004020202040077
:1006360000000000000000000000000000000000B4
:10064600808080808080808000020204000000009C
:100656000000000000000000000080808080000094
:100666000019242222223F2008F800808000000082
:10067600003F112020110E00000000808080000045
:10068600000E112020201100000000808088F80054
:10069600000E112020103F20000080808080000086
:1006A600001F222222221300008080F088888818EA
:1006B6000020203F202000000000808080808000F5
:1006C600006B94949493600008F80080808000008A
:1006D600203F210000203F20008098980000000065
:1006E6000020203F20200000000000809898000095
:1006F60000C08080807F000008F8000080808000B5
:10070600203F24022D302000000808F800000000D9
:100716000020203F20200000808080808080800094
:10072600203F20003F20003F808000808080000026
:10073600203F210000203F200000808080800000B4
:10074600001F202020201F008080008080000000E5
:1007560080FFA12020110E00000000808080800014
:10076600000E112020A0FF80808080008080800005
:1007760020203F2120000100000080808080800032
:100786000033242424241900008080E080800000A7
:100796000000001F202000008080000000808000F4
:1007A600001F202020103F20808080000080808055
:1007B60000010E30080601008080008000808080E5
:1007C6000F300C030C300F0000808000808080000A
:1007D6000020312E0E312000808080000080808035
:1007E60080818E70180601000080808080808000E5
:1007F6000021302C2221300000000000807C020203
:1008060000000000003F404000000000FF00000024
:1008160000000000FF0000000002027C80000000D3
:100826000040403F000000000006010102020404EF
:1008360000000000000000001060028C0000FE9224
:1008460092929292FE00000004047E01407E424293
:100856007E427E42427E40000000FC242424FC2589
:100866002624FC242424040040308F80844C552503
:080876002525554C808080000F
:10194000120D8D14600D14601C24027028ED70259A
:1019500004800FED700B7402120DD39000011480FF
:1019600011E4020DD3ED6401700B120DD390000150
:061970007402120DE522D5
:07000300AE071FEE70FA22A8
:101A5400D2EA7F01120003C2EA7F50120003D2EAE5
:101A6400E4FD30EA107F641200030DEDD394057495
:051A740080948040EDAC
:011A7900224A
:0A197600121A547F0F1200037FCCF9
:02198000AD07B1
:10198200E4FBEBC39408748094805015C2EA00ED26
:101992001392EA7F0A120003D2EAEDC313FD0B8011
:0619A200E17F0A020003D0
:1019D800E4FDFCECC3940874809480501CC2EA00B7
:1019E800D2EA0000000030EA04ED4480FDEDC313A4
:0B19F800FD7F0A1200030C80DAAF052F
:011A030022C0
:101AE600E4FFFE1219767F441219801219767FBE22
:0F1AF6001219801219D8AB071219D8EFFEEBFFA7
:011B050022BD
:10188900121AE6C3EE64809480500BEF1F70011E9C
:10189900EFF4FFEEF4FEAD07AC06EC120A819000FE
:1018A90030120E21E4FFFE7DC87C40900030120EFC
:1018B90015120976E4FBFAF9783F120885020ABA8B
:10181700E4FD121B72E4FD2275F020EA120E2DE59D
:10182700822BF582E43583F583E493FF7D01121B58
:10183700720B22E4FD121B72E4FD22E4FD121B72FF
:10184700E4FD22E4FD121B72E4FD22E4FD121B728B
:10185700E4FD22E4FD121B72E422EBC394087480BA
:10186700948022E4FD121B72E4FD22AC07121BAC2C
:101877007F78121A9F021B6DAF01AD02121AC4E4E2
:02188700FB2242
:091BAC00D280D281C281C28022E4
:071BB500D280C281D281221F
:0B1B6200121A9F121B6DAF04121A9F95
:051B6D00D280C28022BD
:101A9F00C280E4FEEE121862501AAD07ED54806456
:101AAF00807004D2818002C281EF25E0FFD280C214
:041ABF00800E80E035
:011AC3002200
:0B1B8D00121872E4FF121B62021BB56D
:0B1B98001218727F40121B62021BB586
:0E1B7200ED146006047006021B8D121B9822F3
:101AC400AB07ED24B0FFE4FD121B72EB54F0C454D9
:101AD4000F4410FFE4FD121B72EB540FFFE4FD02F0
:021AE4001B7273
:1019A800E4FB1218615028EB24B0FF121817FF123D
:1019B8001B727F1012185AFAEAC3948074809480BC
:0F19C800500A7D01E4FF121B720A80EC0B80D3E2
:0119D70022ED
:06156500AA05A907AF036F
:10156B00E490000BF0FBEF24E0F090000AE0702D0C
:10157B00E9D3947A748094804007E4F9EA04540721
:10158B00FA12187FEBC3940674809480505E90001F
:10159B000BE075F00690002612182380E7E9D39430
:1015AB0078748094804010E4F90A0AEAD3940674A4
:1015BB008094804002E4FA12187F121861500F9049
:1015CB00000BE075F01090024E12182380ECAF0167
:1015DB00EA04FD121AC4E4FB121861500F90000BC1
:0C15EB00E075F01090025612182380ECFE
:0115F70022D1
:0C179E00900000EFF0A3EDF0A3120E5934
:1017AA00E4900006F0900002120E39900006E0F56F
:1017BA0082758300120DA6FB6052900000E0FFA321
:1017CA00E0FD900005E090000AF012156590000512
:1017DA00E07019900000E02406F0E0D3947A748057
:1017EA0094804020E4F0A3E004F08018900000E028
:1017FA002408F0E0D39478748094804007E4F0A33E
:0C180A00E02402F0900006E004F0809959
:0118160022AF
:0918C900900000EFF0AA03A9054C
:1018D200121AC4E4FBEBC3941074809480500890F5
:1018E200083E12181F80EE900000E0FFE904FD128E
:1018F2001AC4E4FBEBC394107480948050089008DF
:061902004E12181F80EEDA
:0119080022BC
:101716007FAE121817FF121B727F101218177F4028
:10172600121B727FB012183A7F81121B727FFF1252
:10173600183A7FA1121B727FA61218427FA8121BAD
:10174600727F3F1218427FC8121B727FD312184A4B
:10175600FF121B727FD512184A7F80121B727FD828
:101766001218527F05121B727FD91218527FF1127E
:101776001B727FDA12185AFD7F12121B727FDB1260
:10178600186A7F30121B72E4FD7F8D121B727F1464
:0817960012186A7FAF021B72FA
:10147D00EFD3940240037FFF2274142F2FF8E62040
:10148D00E5F4C2AFE64430F6D2AFAE0CEEC39F50DA
:10149D00210E74192EF8E6F908E618BE020274FF43
:1014AD00FDED69600909E71919F7090980F31616A9
:1014BD0080DAEED39F400405810581EED39F402253
:1014CD0074192EF808E6F9EEB50C02A98118060676
:1014DD00E6FDED6960091919E70909F71980F31E91
:1014ED0080D9EF2419F8E604F8EF2F04901BBC9374
:0914FD00F608EF2F93F67F0022A0
:101506008FF0E4FFFEE50C232413F8C2A930F70D93
:101516007F08E6600B2DF660325030800730F1060A
:10152600EDF660277E020830F010C2AFE610E72520
:101536000E30E20CD2AF7F048014C2AFE610E7157E
:1015460054EC4EF6D2AFD2A90213867F0808EF44B8
:0F15560083F4C2AF56C6D2AFD2A954804FFF2242
:10087E00020B26E86480F8E933E83360110460F077
:10088E00ED33EC337009E8FCE9FDEAFEEBFF2204E0
:10089E0060DED3EB9FEA9EE99DE8C2E78CF0C2F7DB
:1008AE0095F0400CE8CCF8E9CDF9EACEFAEBCFFBA7
:1008BE00120AF185D0F05804700320D5B3E8047005
:1008CE00075002B2D5020B3092D5EC0460F7E4CC9F
:1008DE00C0E0C398F8603B94186008400DD0E0FB70
:1008EE00020B08E4FBFAC9FC8028E830E406E4C9F0
:1008FE00FBE4CAFCE830E305E4C9CACBFCE85407C4
:10090E006010F8C3E913F9EA13FAEB13FBEC13FCCE
:10091E00D8F130F52FC3E49CFCEF9BFFEE9AFEED71
:10092E0099FDD0E0FBEF4E4D4C701222DB03020B13
:10093E002DEC2CFCEF33FFEE33FEED33FDED30E707
:10094E00EB020B08EF2BFFEE3AFEED39FDD0E0FB8C
:10095E0050130BBB0003020B30ED13FDEE13FEEF35
:08096E0013FFEC13FC020B085F
:10097600EC4D6011E8497017ED33EC3304600DE47B
:10098600FCFFFEFD22E933E8330470F8020B261261
:100996000AF158046009E4CC248150062850090263
:1009A6000B30284003020B2DC0E0EB4A7044B9809F
:1009B60006D0E0FB020B1CEF4E701CBD8008EBFF5F
:1009C600EAFEE9FD80EBE98DF0A4FEE5F0020A5FA0
:1009D600E9CDF9EAFEEBFFEF89F0A4FCE5F0CE895C
:1009E600F0A42EFFE435F0CD89F0A42DFEE435F019
:1009F6008067EF4E7005BD80D780C3EF8BF0A4AC47
:100A0600F0EE8BF0A42CFCE435F0F8EF8AF0A42C81
:100A1600E5F038FCE433CB8DF0A42CFCE5F03BF894
:100A2600EE8AF0A42CFCE5F038F8E433CF89F0A484
:100A36002CFCE5F038CF3400CE89F0A42FFFE5F08A
:100A46003EFEE433C98DF0A42EFEE5F039CD8AF0E2
:100A5600A42FFFE5F03EFEE43DFD33D0E0FB50075A
:100A66000BBB000F020B30EC2CFCEF33FFEE33FE1A
:060A7600ED33FD020B0848
:100A7C0075F020800E75F010800575F0087D007EF5
:100A8C00007F003392D530D503120E07EC334010A3
:100A9C00EF33FFEE33FEED33FDEC33FCD5F0ED22FE
:0E0AAC00E5F0247EA2D513CC92E7CDCEFF223A
:100ABA00EDD2E7CD33EC3392D524814006E4FFFE34
:100ACA00FDFC22FCE4CFCECDCC24E0501174FF8093
:100ADA00EDC3CC13CCCD13CDCE13CECF13CF047030
:070AEA00F030D5DE020E071B
:100E8800E50E2403F582E43400F583E0050E229094
:100E98000000300703900003E475F001120E4202CF
:100EA8000D8D2000E97F2ED2008018EF540F24907A
:100EB800D43440D4FF30040BEF24BFB41A005003DD
:100EC8002461FFE50F6002150F0512E51270020597
:100ED8001130070E900000E475F001120E42EF0287
:100EE8000DD3021A2D7403D2078003E4C207F50E4E
:100EF800900000120E59E4F50FF511F512E50F6098
:100F0800077F20120ECB80F57510FFC201C200C208
:100F180002C203C205C206C208120E97FF700D3046
:100F280007057F00120EDCAF12AE1122B4255FC296
:100F3800D5C204120E97FF24D0B40A00501A75F0D7
:100F48000A780F30D50508B6FF0106C6A426F62094
:100F5800D5047002D20380D924CFB41A00EF50040C
:100F6800C2E5D2040211CED20180C6D20080C0D21E
:100F78000280BCD2D580BAD20580B47F20120ECBB5
:100F88002002077401B50F0040F1120E88FF120EFF
:100F9800CB020F05D208D2068095120E88FB120EDE
:100FA80088FA120E88F94A4B700679CC7A127BFFC0
:100FB80020022EE50F602A7E008E82758300120DB6
:100FC800A660060EEE651070F0C2D5EBC0E0EAC070
:100FD800E0E9C0E0EE12122FD0E0F9D0E0FAD0E05C
:100FE800FB120D8DFF60AAEBC0E0EAC0E0E9C0E0AB
:100FF800120ECBD0E02401F9D0E03400FAD0E0FBA7
:10100800E5100460DCD510D98087D20280A21212C4
:101018001160F7E510700104120B3BA910600DE593
:1010280010600914F5101212B9EF60F3EA30E70204
:10103800F404C3995079EAF425100430E701E40474
:10104800F510800D12121160C1EA05102510120B5F
:101058003BEA90002FF030E701E4251004D5100496
:101068002005011412122FE4C0E01212B990002FCB
:10107800E0601320E70714F0120EB3802204F0D0CA
:10108800E014C0E07F00120EB3E5106007120EAA4C
:101098001510800B300503120EAAD0E0020F05D000
:1010A800E00480C4121211609EE51004120B3B90FC
:1010B800002FEAF0E5102005026001042404121252
:0110C8002FF8
:1010C90074FF04C0E01212B9120EB3E51020050234
:1010D9006003120EAAD0E0B510E87F45120EBD904C
:1010E900002FE07F2B30E7047F2DF404C0E0120EBF
:1010F900CBD0E075F00A84C0F0120EB4D0E0120E25
:10110900B4020F05791080027908C206C208800866
:10111900D2D5790A8004790AC2D5E510047002F59E
:1011290010E4FAFDFEFF120E88FC7B082001131261
:101139000E88FD7B1030000A120E88FE120E88FF01
:101149007B20EC3382D592D55013C3E43000069F3F
:10115900FFE49EFEE42001039DFDE49CFCE4CBF842
:10116900C201EC700CCFCECDCCE824F8F870F38036
:1011790017C3EF33FFEE33FEED33FDEC33FCEB33F6
:10118900FB994002FB0FD8E9EB300105F8D0E0C428
:1011990048B201C0E00AEC4D4E4F78207B0070C286
:1011A900EAB5100040BCC0E0121231D0F0D0E02006
:1011B9000104C4C0E0C4B201C0F0120EB4D0F0D52D
:1011C900F0EB020F05120E620FA253110D580F73A7
:1011D9004C0F6F4211114F1119441119490F8843CE
:1011E900111F55104C4610AC4510164712EC500F04
:1011F900772D0F7B2E0F9E2B0F7F230F9C2012D54F
:101209002A0F374800000F96E510B4FF0375100642
:10121900120E88FC120E88FD120E88FE120E88FF2F
:10122900900028020B78790AA2D520031430050909
:10123900B910020404B9080104A2D520060250011C
:10124900042002689202B50F005034C0E07F2030BC
:1012590003197F30A20272067205500F121288C25A
:1012690002C206C205C2087F30800F300503E9C0FB
:10127900E0120ECB300503D0E0F9D0E0B50FCC3049
:1012890005177F30B9100C120ECB7F583004077F39
:10129900788003B90803120ECB3002057F2D020EA8
:1012A900CB7F202008F87F2B2006F322920280CFE3
:1012B9007F00B40700500B2428F582E43400F5833D
:1012C900E0FF22286E756C6C2900D201120E88305D
:1012D90001F8C201780F30D50108F6020F372D50F9
:1012E900434958120E882403B405004001E49012C2
:1012F900E793120EBC743A120EBCD203750F0402A6
:02130900110DC4
:100AF100E9D2E7C933E833F892D5EDD2E7CD33EC4B
:070B010033FC5002B2D522C3
:100B0800EC30E7100FBF000C0EBE00080DBD00044E
:100B18000BEB6014A2D5EB13FCED92E7FD2274FFFA
:100B2800FCFDFEFF22E480F8A2D574FF13FC7D8053
:030B3800E480EF67
:100B3B00F920E73624F950037907E4F42402FBE5A6
:100B4B0082158270021583DBF6E024FB501BE960F3
:100B5B0014E4F0E582158270021583E004F0B40A08
:0D0B6B0008E4F0D9EE7401F00A22C2D52290
:100B7800ED33EC3392D5FA602AB4FF33EDC2E77B4C
:100B8800FF60067A0B799DE4227A0B79A620D504BA
:100B98007A0B79A1224E614E002B494E46002D4911
:100BA8004E4600E47A08F0A3DAFC7B00740722C002
:100BB80083C082ECC0E0EDC0E0EEC0E0EFC0E0EA48
:100BC80075F010A4CAABF075F04DA42BFBE435F01A
:100BD800FCEA2410FAEB34C5FBEC34D9FCEDC2E78F
:100BE800FF75F056A4F42411C5F0F434C58FF0A4B1
:100BF8002AE5F03BE43CF020E714120D4DD0E0FF6D
:100C0800D0E0FED0E0FDD0E0FC120C808014F404AB
:100C1800120D4DD0E0FFD0E0FED0E0FDD0E0FC1298
:100C28000976D082D083E0FAEDD2E7CD33EC3324D5
:100C380082FBE4C3CF33CFCE33CECD33CD33DBF31A
:100C48007B0775F00A846004F0A31B0AE5F0F0A3A3
:100C58008FF0740AA4FFACF08EF0740AA42CFEACDA
:100C6800F050010C8DF0740AA42CFDE435F0F0A3CB
:050C7800DBDE74072221
:100C7D00020B30EC5D046005E859047003020B268D
:100C8D00120AF1580460F6EC4860F2EC7004FDFEB7
:100C9D00FF22C860DB2481C85009C398600250064A
:100CAD00020B2D9850CAF582E9294B4A7005AB828B
:100CBD00020B1C75F0007C1A7880C3EF9BEE9AED49
:100CCD0099400DC3EF9BFFEE9AFEED99FDE842F0C2
:100CDD00DC23ACF0D0E0FFD0E0FED0E0FDAB822015
:100CED00E7101BEB60BAEC2CFCEF33FFEE33FEED9F
:100CFD0033FD020B08E803F830E705C0F075F0008E
:100D0D00EF2FFFEE33FEED33FD40B830E7C280AA82
:100D1D003F8000004120000042C80000447A0000DE
:100D2D00461C400047C35000497424004B18968060
:100D3D004CBEBC205A0E1BCA6753C21C749DC5AE57
:100D4D00FB60065407601C2323120D7BEB543860A7
:100D5D0009120D67120D76120976ECF8EDF9EEFA1F
:100D6D00EFCB22EB120D7680F1543803241C900D3D
:100D7D001DFE93FC0EEE93FD0EEE930ECE93FF2211
:10169600021440E493A3F8E493A34003F68001F216
:1016A60008DFF48029E493A3F85407240CC8C33355
:1016B600C4540F4420C8834004F456800146F6DF24
:1016C600E4800B0102040810204080901A04E47E96
:1016D600019360BCA3FF543F30E509541FFEE49319
:1016E600A360010ECF54C025E060A840B8E493A3E0
:1016F600FAE493A3F8E493A3C8C582C8CAC583CA0B
:10170600F0A3C8C582C8CAC583CADFE9DEE780BEC2
:011A2C0000B9
:100D8D00BB010689828A83E0225002E722BBFE0264
:090D9D00E32289828A83E4932297
:100DA600BB010CE58229F582E5833AF583E0225002
:100DB60006E92582F8E622BBFE06E92582F8E2224C
:0D0DC600E58229F582E5833AF583E4932266
:100DD300BB010689828A83F0225002F722BBFE01FF
:020DE300F322F9
:100DE500F8BB010DE58229F582E5833AF583E8F044
:100DF500225006E92582C8F622BBFE05E92582C8F0
:020E0500F222D7
:0E0E0700C3E49FFFE49EFEE49DFDE49CFC22FC
:0C0E1500E0F8A3E0F9A3E0FAA3E0FB2260
:0C0E2100ECF0A3EDF0A3EEF0A3EFF02244
:0C0E2D00A42582F582E5F03583F58322D0
:090E3900E0FBA3E0FAA3E0F922BA
:100E4200F8E0FBA3A3E0F925F0F0E5821582700239
:070E52001583E0FA38F022DD
:090E5900EBF0A3EAF0A3E9F0229A
:100E6200D083D082F8E4937012740193700DA3A31F
:100E720093F8740193F5828883E473740293686033
:060E8200EFA3A3A380DF33
:101A2D00EFB40A07740D121A38740A309811A89978
:101A3D00B8130CC2983098FDA899C298B811F63019
:071A4D0099FDC299F59922F1
:10000E00E4FFFE120D8D600C0FEF70010E09E9700A
:05001E00F20A80EF2250
:00000001FF
